S00D000064687431312E7372656375
S11300000C942A000C9434000C9434000C943400A6
S11300100C9434000C9434000C9434000C9434008C
S11300200C9434000C9434000C9434000C9434007C
S11300300C9434000C9434000C9434000C9434006C
S11300400C9434000C9434000C9434000C9434005C
S11300500C94340011241FBECFE5D8E0DEBFCDBF21
S11300600E9401010C9431010C940000BC9A2FEF02
S113007083ED90E3215080409040E1F700C0000000
S113008008958F929F92AF92BF92CF92DF92EF9298
S1130090FF920F931F93CF93DF9300D000D01F9252
S11300A0CDB7DEB7BB9A25E02EBD1DBC1CBCC398E2
S11300B02CB53DB5203A3105D8F322E02EBD1DBC48
S11300C01CBCC39ABB98B39B06C02CB53DB52C335E
S11300D03105C8F377C01DBC1CBCB39906C02CB550
S11300E03DB524363105C8F36FC01DBC1CBCB39BA1
S11300F006C02CB53DB524363105C8F367C0FE01F2
S11301003196BE016A5F7F4FDF01C12CD12C76018D
S1130110C39447E050E01DBC1CBCB39906C02CB589
S11301203DB526343105C8F353C01DBC1CBCB39B7C
S113013006C02CB53DB52A353105C8F34BC02CB5E6
S11301403DB51CEE120F103178F497018601042E90
S113015004C0000F111F221F331F0A94D2F7009509
S11301602C9102230C9310C02C532531A8F52C910B
S113017046015701042E04C0880C991CAA1CBB1C00
S11301800A94D2F728292C934150510920F611964C
S1130190A617B70709F0BDCF39812A81320F2B8109
S11301A0320F2C81230F3D81231318C0A82FB92FA0
S11301B09E012B5F3F4F81918D932E173F07D9F7F7
S11301C081E00DC080E00BC080E009C080E007C082
S11301D080E005C080E003C080E001C080E00F90B3
S11301E00F900F900F900F90DF91CF911F910F916F
S11301F0FF90EF90DF90CF90BF90AF909F908F9043
S11302000895CF93DF9300D000D0CDB7DEB70E941E
S11302103600CE0101960E9441008823C9F08B81EB
S11302208823B4F0C49A2FEF30E792E02150304095
S11302309040E1F700C00000C4982FEF34E39CE045
S1130240215030409040E1F700C00000815052F747
S113025080E090E00F900F900F900F90DF91CF917E
S10902600895F894FFCF9D
S9030000FC
