S0140000736D617274486F6D654370702E737265633D
S11300000C942A000C9447000C9447000C9447006D
S11300100C9447000C9447000C9447000C94470040
S11300200C9447000C9447000C9447000C94470030
S11300300C9447000C9447000C9447000C94470020
S11300400C9447000C9447000C9447000C94470010
S11300500C94470011241FBECFE5D8E0DEBFCDBF0E
S113006010E0A0E6B0E0E4E9F8E002C005900D92EB
S1130070A63AB107D9F720E0A6EAB0E001C01D9284
S1130080A03BB207E1F70E94FB020C9448040C94D5
S11300900000672B09F09FC0009711F4D8980895C9
S11300A08130910511F4D99808958230910511F4A5
S11300B0DA9808958330910511F4DB98089584301B
S11300C0910511F4DC9808958530910511F4DD98BB
S11300D008958630910511F4DE98089587309105CE
S11300E011F4DF9808958A30910511F4C0980895A9
S11300F08B30910511F4C19808958C30910511F459
S1130100C29808958D30910511F4C39808958E30E6
S1130110910511F4C49808958F30910511F4C59890
S113012008958031910511F4C6980895813191059F
S113013011F4C79808958431910511F4A89808958D
S11301408531910511F4A99808958631910511F42A
S1130150AA9808958731910511F4AB9808958831D0
S1130160910511F4AC9808958931910511F4AD9875
S113017008958A31910511F4AE9808958B31910553
S113018011F4AF9808958E31910511F49098089563
S11301908F31910511F4919808958032910511F4ED
S11301A0929808958132910511F4939808958232BA
S11301B0910511F4949808958332910511F495985A
S11301C008958432910511F496980895859709F05D
S11301D09FC097980895009711F4D89A0895813094
S11301E0910511F4D99A08958230910511F4DA9A9F
S11301F008958330910511F4DB9A089584309105B4
S113020011F4DC9A08958530910511F4DD9A08956E
S11302108630910511F4DE9A08958730910511F422
S1130220DF9A08958A30910511F4C09A08958B30AD
S1130230910511F4C19A08958C30910511F4C29A74
S113024008958D30910511F4C39A08958E30910567
S113025011F4C49A08958F30910511F4C59A089544
S11302608031910511F4C69A08958131910511F4F4
S1130270C79A08958431910511F4A89A0895853197
S1130280910511F4A99A08958631910511F4AA9A59
S113029008958731910511F4AB9A08958831910539
S11302A011F4AC9A08958931910511F4AD9A089529
S11302B08A31910511F4AE9A08958B31910511F4A8
S11302C0AF9A08958E31910511F4909A08958F3163
S11302D0910511F4919A08958032910511F4929A3E
S11302E008958132910511F4939A0895823291050B
S11302F011F4949A08958332910511F4959A08950E
S11303008432910511F4969A0895859709F4979A81
S11303100895CF93C82F80FF07C061E070E082E2A8
S113032090E00E94490006C060E070E082E290E044
S11303300E944900C1FF07C061E070E083E290E0E1
S11303400E94490006C060E070E083E290E00E94F1
S11303504900C2FF07C061E070E084E290E00E94BF
S1130360490006C060E070E084E290E00E94490029
S1130370C3FF07C061E070E085E290E00E9449009D
S113038006C060E070E085E290E00E944900CF91F1
S11303900895CF93C82F60E070E08AE190E00E9456
S11303A049008C2F0E94890161E070E08BE190E0AC
S11303B00E94490089EF90E00197F1F700C0000026
S11303C060E070E08BE190E00E94490089EF90E0EA
S11303D00197F1F700C00000CF91089580E00E94DA
S11303E0C90181E00E94C9010895CF93C62F8130CD
S11303F059F480E8860F82958F700E94C9018C2F72
S11304008F700E94C9010CC0823051F480EC860FB9
S113041082958F700E94C9018C2F8F700E94C90130
S1130420CF91089580E00E94890187E893E10197C4
S1130430F1F700C0000083E00E94C90181EE94E05E
S11304400197F1F700C0000083E00E94C9018DEB21
S11304509AE00197F1F700C0000083E00E94C9010F
S113046082E00E94C90182E00E94C90188E00E94E2
S1130470C90180E00E94C9018CE00E94C90180E0AA
S11304800E94C90186E00E94C9010895CF93C82F34
S113049061E070E08AE190E00E9449008C2F82952F
S11304A08F700E94890161E070E08BE190E00E940E
S11304B0490089EF90E00197F1F700C0000060E087
S11304C070E08BE190E00E94490089EF90E0019791
S11304D0F1F700C000008C2F8F700E94890161E049
S11304E070E08BE190E00E94490089EF90E0019771
S11304F0F1F700C0000060E070E08BE190E00E9442
S1130500490089EF90E00197F1F700C00000CF9116
S11305100895CF93DF93EC018881882331F02196ED
S11305200E94460289918111FBCFDF91CF910895FA
S11305308B9A939887E893E10197F1F700C0000044
S1130540939A08958B988399FECF839BFECF8399CA
S1130550FECF089588E090E0839BFECF2AE02A95A1
S1130560F1F7839B07C02091AB00220F21602093F9
S1130570AB0005C02091AB00220F2093AB00839900
S1130580FECF019749F78091AB00089580E487B9C5
S113059087E886B9089597B1907E97B997B1877027
S11305A0982B97B9369A349BFECF349A84B195B17F
S11305B008954AE06CEA70E00E941304089589B932
S11305C090BD82E08BB986E880BD88E18AB9089540
S11305D05D9BFECF8CB90895CF93DF93EC018881A6
S11305E0882331F021960E94E80289918111FBCF82
S11305F0DF91CF910895CF93DF93CDB7DEB76E9798
S11306000FB6F894DEBF0FBECDBF8C9A8D9A8E9A2A
S11306108F9A8FEF84BB87BB88BB0E9412020E9413
S1130620C6028CE090E00E94DF022FE181EA97E0AD
S1130630215080409040E1F700C000008E010F5F20
S11306401F4F0F2EF7E17F2EF02D6E01E8E0CE0E46
S1130650D11C0F2EFEE28F2E912CF02D0F2EFCE2DA
S1130660AF2EB12CF02D552453946894662462F86F
S113067087E0E0E6F0E0D80101900D928A95E1F779
S1130680F601272D11922A95E9F70E9498020E94FB
S1130690A2020E94AA028093AA000E94AA02809346
S11306A0A9000E94AA028093A8000E94AA02809333
S11306B0A7000E94AA028093A6009091AA0020910C
S11306C0A90030E0290F311D9091A800290F311D98
S11306D09091A700290F311D90E02817390739F0B0
S11306E00E94EE018EE790E00E9489026BC00E9496
S11306F0EE018091A80090E00E94D90289E890E080
S11307000E9489028CEA90E00E9489026CEA70E0FF
S1130710C8010E940804F80101900020E9F731970C
S1130720918280828091A70090E00E94D90281E9A1
S113073090E00E9489028CEA90E00E9489026CEAAF
S113074070E0C8010E940804F80101900020E9F754
S11307503197B182A08260E082E00E94F50180912D
S1130760AA0090E00E94D90283E990E00E948902E5
S11307708CEA90E00E9489026CEA70E0C8010E9451
S11307800804F80101900020E9F73197B182A082B2
S11307908AE990E00E94890280E00E94CB027C01F9
S11307A00E94D9028CEA90E00E9489026CEA70E00F
S11307B0C8010E940804F80101900020E9F731976C
S11307C0B182A0828FE39DE0E3E081509040E0405D
S11307D0E1F700C000000E94EE01C8010E94EC0293
S11307E08091A8008F3110F018BA01C058BA8091D6
S11307F0AA008A3510F418BA02C082E088BBFCE271
S1130800EF16F1E0FF0614F418BA32CF68BA30CF0D
S1130810FB01DC010D900020E9F7119701900D9286
S11308200020E1F70895BB274A3031F4992322F4DC
S1130830BDE2909581959F4F0C941F04BB27FB014B
S11308405527AA27880F991FAA1FA41710F0A41BC5
S113085083955051B9F7A05DAA3308F0A95DA1931F
S1130860009779F7B111B1931192CB010C9438042C
S1130870DC01FC01672F71917723E1F7329704C003
S11308807C916D9370836291AE17BF07C8F308958E
S1070890F894FFCF06
S1130894646174613A2D000000000000000000004F
S11308A40000000000000000000000000000457289
S11308B4726F7220446831310074656D703A2D2072
S11308C4002E0048756D3A2D200020536F696C206A
S10908D476616C3A2D0070
S9030000FC
